S02B00006D61747465725F7468726561645F7777323032335F6D61742D3230345F6C6F636B5F6C696768745F1A
S3150800600000120020018D0008A76E0808C75E0B085D
S3150800601089960808A76E0808A76E0808A76E0808D4
S31508006020A76E0808A76E0808A76E08085162000838
S31508006030A76E0808E0BC0C08F1610008E9A008088A
S3150800604019920008A76E0808A76E0808A76E080820
S31508006050A76E0808A76E0808A76E0808A76E08089E
S31508006060A76E0808A76E0808A76E0808F18903082E
S31508006070A76E0808A76E0808A76E0808A76E08087E
S31508006080A76E0808A76E0808A76E0808A76E08086E
S31508006090A76E080849990008A76E0808A76E080899
S315080060A0A76E0808C59A0008A19A0008A76E0808EE
S315080060B0A76E0808E5330808E93D080823AA0C086E
S315080060C01FAA0C08B53508082FAA0C0827AA0C0819
S315080060D0C13D08082BAA0C08293E08088D3E080869
S315080060E0A76E0808A76E0808A76E0808A76E08080E
S315080060F085960808A76E0808A76E0808A76E0808F8
S31508006100A76E0808A76E0808A76E0808A76E0808ED
S31508006110A76E0808A76E0808A76E0808A76E0808DD
S31508006120A76E0808A76E0808A76E0808A76E0808CD
S31508006130A76E0808A76E0808A76E0808A76E0808BD
S31508006140A76E08088DCC0008A76E0808C797080828
S31508006150CD1B0808A76E0808BBA60C08C1A60C0824
S31508006160A76E0808A76E0808A76E0808A76E08088D
S31508006170013800D0FCE7704700000000000000006E
S315080061800B4A1168086806C881F30B88022181F357
S315080061901488203080F30988BFF36F8F4FF0000012
S315080061A080F31188104700BFAFF30080AFF300807B
S315080061B0844E0120000000000000000000000000DE
S315080061C007480068006880F3088862B661B6BFF3BE
S315080061D04F8FBFF36F8F02DF00BF00BFAFF30080A2
S315080061E008ED00E0000000000000000000000000CC
S315080061F0EFF30980EFF30B82734620E9FC0F104A90
S31508006200116808604FF0300080F31188BFF34F8F94
S31508006210BFF36F8F10F0F8F84FF0000080F3118885
S31508006220074A11680868B0E8FC0F82F30B8880F308
S3150800623009881847AFF30080AFF30080AFF30080FA
S31508006240844E01200000000000000000000000004D
S315080062501EF0040F0CBFEFF30880EFF30980044922
S31508006260084700BFAFF30080AFF30080AFF30080AC
S31508006270AD720108000000002DE9F04F2DED028BEC
S31508006280DFF8E8918FB0B9F800309B0706D440F2E2
S3150800629082616F4B6F4A70487EF0C6FFDFF8D0B157
S315080062A0DBF8003023B940F283616C4B694AF2E7A8
S315080062B06B4C0DF1200894E8070088E807009B88D6
S315080062C0684D8DF817300123B9F800200DF1170134
S315080062D01A462868C3F09DFD9DF81720DBF80010C4
S315080062E0023A0023096892B20C3428680DF12C0A88
S315080062F0C3F08FFD94E807008AE80700DBF8003052
S315080063001B681C7814F0200421D02868C3F09DFB74
S31508006310002870D02868C3F098FB04460D987EF0D4
S315080063206FFA064620460F467EF06AFA02460B4684
S3150800633043A1D1E900017EF007FC02460B46304630
S3150800634039467EF021F97EF06FFD0D90012428680C
S31508006350C3F097FB9DF81730002850D0981DC00051
S315080063607EF05EFA38A3D3E900237EF0C3FA41EC47
S31508006370180B2868C3F085FB03900D987EF040FA49
S31508006380039B064618460F467EF03AFA02460B4627
S3150800639051EC180B7EF0D8FB02460B4630463946C0
S315080063A07EF0F2F87EF040FD0D90B9F80020DBF89B
S315080063B0003012F02002286827D00D9A02F5FA72EA
S315080063C00D9293F8202099798DF82220264A434683
S315080063D01278CDF800A08DF823202246C3F0AEF837
S315080063E020B102200DF088F957F054FC0FB0BDEC2F
S315080063F0028BBDE8F08F0D9BC0330D93A6E70D9871
S31508006400063300EB43130D93CFE79D6999797DB168
S31508006410DB69154E2B4436780693ADF81C20CDE97A
S31508006420008A224606AB8DF82360C3F092F8D7E7B8
S3150800643053462246C3F06CF8D2E700BFAFF300809C
S315080064400000000060E366410000000080842E41E1
S3150800645005010D0803040D083DFF0C082B010D0866
S31508006460E8020D08244B012068190020466902201D
S31508006470284E01200000000073B5814B1C8814F0DB
S31508006480010440F0F58041F60B227E4D7E4B7F21BC
S31508006490C5E9003405F11003AB607C4B7C489A8053
S315080064A010221C60C5F029F87F227A4B1A707A4BA5
S315080064B01B6ADB0706D440F20E41784B784A7948C6
S315080064C07EF0B2FE2146284674F076F9044620B9D5
S315080064D040F21241744B724AF1E775F071FD20B132
S315080064E040F21641714B6E4AE9E74FF0011120461A
S315080064F0C3F077FC20B140F21A416C4B684ADEE7DC
S3150800650002212046C3F082FA20B140F21D41674BB2
S31508006510634AD4E72046664975F016FB20B14FF466
S315080065208461624B5E4ACAE701212046C3F00FFE2A
S3150800653020B140F225415D4B594AC0E7012120466A
S31508006540C3F01CFE064620B14FF48561574B544AEA
S31508006550B5E7014638225748C4F0CFFF80233246B4
S31508006560204605F11401C3F06AFC802804D040F2E5
S315080065702F41514B4A4AA2E7504D0120C2F0C3FFB2
S315080065803DA3D3E900232C602046CDE900234FF034
S31508006590FF324FF0FF33C3F0F2FA014620B140F262
S315080065A06E31424B464A8AE738480CF019FF0121FA
S315080065B008460CF089FF01212868C3F071F90446E2
S315080065C020B140F2C141394B3E4A78E701464FF4C3
S315080065D008723D48C4F091FF3C4A3D4B02F18801E0
S315080065E01A60996202F5887102F5CC729C809A67E6
S315080065F09C85384AA3F854401965A3F87C40364B65
S315080066006FF063001A609C80344A354B1A60354A2D
S315080066109C801470344A5A6116F096FA0B200CF0D6
S3150800662099FE324B186020B940F2D941304B254AC1
S3150800663045E706F083FA20460CF0B2FF08222868E0
S315080066401146C3F0B7FA044620B140F2DE41294BA1
S315080066501C4A34E70EF01AF8274B28481C70284BBA
S315080066601C70284B1C7002B0BDE8704089F078BEDB
S3150800667002B070BDAFF300800BE020FFE20300001C
S3150800668046690220304B012025380108284B012095
S3150800669045750220367502200080E00FD5010D08E9
S315080066A078030D083DFF0C08EE010D089EFE0C0848
S315080066B088040D08D04B0120FD010D08244B01204C
S315080066C06B030D08F4030D08084C0120104C01203B
S315080066D02021002056750220F8200020DB750220B4
S315080066E0C0210020D5750220E8210020CC4B0120CE
S315080066F035020D0850020D0839750220D4020D081E
S31508006700DA750220D97502202DE9F3411F46204B80
S31508006710044683424FF000038B410E46154611D2BC
S3150800672019A3D3E900237EF0EFFB1A49024628464F
S315080067308CF0CFFB14A3D3E90023204631467EF024
S31508006740E3FB144614484FF47A78B4FBF0F200FBE6
S3150800675012444EF66020B4FBF0F300FB1344B4FB7E
S31508006760F8F628460D4900968CF0B3FB47B1284643
S3150800677008FB16420A4902B0BDE8F0418CF0A9BBF5
S3150800678002B0BDE8F08100BF005C260500000000ED
S31508006790FF5B2605B8410D0880EE36007F550E08CA
S315080067A0BE410D08000000002DE9F04F2DED028BCB
S315080067B0804600680C4691461D468DB030B90327C1
S315080067C038460DB0BDEC028BBDE8F08F0668766CD6
S315080067D0B0472D2807460CD00028F1D09C4A9D4B7F
S315080067E00221A52808BF13460D209B4AAEF016FCC9
S315080067F0E6E76378202B01D10027E1E7974BD8F825
S315080068000000049358B1036822461B6C04A99847F4
S31508006810074630B1049803689B689847D0E7032772
S31508006820F8E78F4B8F4E05934FF48973EE40F64386
S31508006830EB40DB43102D06F0010688BF0126082D24
S3150800684003F0010388BF01239FED7F8B6FF0010BD7
S315080068500193049805A90368DB689847002840F067
S31508006860EC808DF80E0005980DF10E010368DB68C3
S3150800687098470746002843D19DF80E30402B03D091
S31508006880802B01D003273BE062789A42E1D10123AD
S3150800689005988DF80F3003680DF10F015B6998476D
S315080068A0074668BB9DF80F30082B17D8002BD0D0A9
S315080068B0013B072BCDD801A252F823F00D69000839
S315080068C0E768000853680008096900085368000863
S315080068D0536800085368000813690008102BB8D1DC
S315080068E0002EB6D102E06B1E012BB2D80023059804
S315080068F00693036806A95B6A9847824668B1074605
S3150800690005A89AF017FD85E7042DEFD0012DA0D133
S31508006910ECE7019B002B9CD1E8E7069B002B46D0B1
S315080069208DED088B05985146036808AA9B6A984717
S3150800693007460028E4D1DDE90830591E40F1FF3248
S315080069408B456FF0100171EB020210D39DF80E20F3
S31508006950402A97D1D4E90212904208BF8B4226D02A
S31508006960069B0AF1010A53457FF673AFD8E74FF045
S31508006970FF31C21C994277EB020231D39DF80E20F3
S31508006980402A7FF47FAF1F0C04F1100104F11C00AC
S315080069909BB28842E4D051F8042B002AF9D0B7EB11
S315080069A0124FF6D1002BF4D092B29342F1D80023BD
S315080069B005980793036807A99B6B9847074600281D
S315080069C09ED1079B002B36D082460598CDF820A08D
S315080069D003683946DB6B08AA984758B107468FE71C
S315080069E013F5803F70F1FF32FFF44CAF9DF80E208F
S315080069F0802AAEE7089BD90704D5D9F8002009995B
S31508006A00914212D19A0705D5BDF82810B9F8042085
S31508006A1091420AD15B070ED5D8F80400B9F80420CC
S31508006A2003680B999B68984728B9079B0137BB42AF
S31508006A307FF60FAFC9E7002762E702210D200A4A51
S31508006A40AEF0ECFAA5275BE70000000000000000A6
S31508006A5090680D0855300F0864680D08301400203A
S31508006A60341400201601010081680D08000000009A
S31508006A702DE9F04F2DED028B9FED658B83ED008B95
S31508006A8017460026C1B09946D0E90623CDE900236A
S31508006A9004468A4697F820201CA926A80F969CF03B
S31508006AA02CF803238DED188B5B4DCDE9126628680B
S31508006AB0ADF8683014961696036810A95B6998476E
S31508006AC0002840F08D800126109B0A93119B0B939A
S31508006AD000234FF0030BCDE91333ADF848300A9B7A
S31508006AE04FF0FF3218930B9B21681CA819938DF859
S31508006AF05860ADF868B0ACF00BFF97E807003B8C20
S31508006B000DF1480888E80700ADF868305146D4E921
S31508006B1006232046CDE93223D4E90A23CDE93023DA
S31508006B200FAB424634F03AFA05460346002866D1CA
S31508006B30204697F820200F9934F08AFB054603462D
S31508006B4000285CD143465246204626A99BF0F5FF0D
S31508006B5005460346002852D1E368229A2046134484
S31508006B60E360D4E90623C9E9002334F07DFA0A9BD9
S31508006B709DF858C0A3620B9B2848E362284B84F80B
S31508006B802060BCF1000F18BF03461898139F0890A1
S31508006B901998D9F80020CDE906309DF86810BDF897
S31508006BA0485014983E0CBFB2CDE90021D9F80430FC
S31508006BB059461C4ACDE90470CDE902561A20AEF0B2
S31508006BC02DFA34F02FFF4146E26800F5CE6044F016
S31508006BD00FFA0546284641B0BDEC028BBDE8F08F9A
S31508006BE029680CA80B68DB689847D4E90C310C9A1D
S31508006BF0D31A0A930D9B63EB01030B9368E70121F4
S31508006C001A20094AAEF00AFAE4E700BFAFF300809B
S31508006C1000000000000000007815002076740D08BA
S31508006C2072740D087C740D0804750D0800000000C8
S31508006C302DE9F04F2DED028B884204460D4690460D
S31508006C401E4697B00AD1034601211D202E4A17B0C9
S31508006C50BDEC028BBDE8F04FAEF0E0B99FED288B96
S31508006C600DF10C092A21484605AF47F001F999E8C4
S31508006C70030087E80300DFF894A0DFF894B0BDF8B6
S31508006C801400BDF81630834234D047F08BF93378B8
S31508006C9081468DF824408DF825508DF826808DF88C
S31508006CA028300BB173680B9309AB0893CDF81CA079
S31508006CB034F0BAF800230E938DF840308DF8513031
S31508006CC02A23ADF830904FF001090D930CAA6B46B4
S31508006CD007A98DED128B8DF850909CF015F8034698
S31508006CE020B15A4649461D20AEF098F93846A5F017
S31508006CF030FCC4E717B0BDEC028BBDE8F08F00BFCF
S31508006D0000000000000000009C0C0E08880D0E080C
S31508006D10DC0C0E08000000002DE9F04F2DED028B6B
S31508006D209FED318B9DB00DF108092A21054604AC6B
S31508006D30484616461F46DDF8A48047F099F899E8B4
S31508006D40030084E80300DFF8A8A0DFF8A8B0BDF8C0
S31508006D501000BDF8123083423ED047F023F9289B35
S31508006D6081461B78CDE90A6708958DF830301BB146
S31508006D70289B5B788DF8313098F800308DF83830DC
S31508006D801BB1D8E90223CDE9102308AB0793CDF848
S31508006D9018A034F049F800232A228DF858308DF8C7
S31508006DA069300223ADF848904FF00109CDE9132365
S31508006DB006A96B4612AA8DED188B8DF868909BF084
S31508006DC0A3FF034620B15A4649461D20AEF026F9D0
S31508006DD02046A5F0BEFBBAE71DB0BDEC028BBDE8A8
S31508006DE0F08F00BFAFF30080000000000000000035
S31508006DF0B00D0E08330D0E082DE9F04F2DED028B60
S31508006E00083089B00E469146DDF86080ADF0F5FF92
S31508006E100446002800F0A1806D4614AB0FCB85E828
S31508006E200F0000259FED508B4FF0010B41F2A45A3D
S31508006E3004AF87E80F004E4BC4E90355236003F1FE
S31508006E402C02C4E905554833A3604A4B04F1480CA3
S31508006E5062600FCB84ED0E8BC4E90755C4E90C5567
S31508006E6084F8245084F840508CE80F00424B1022D6
S31508006E70236604F17803C4E91E3304F1A003C4E9C8
S31508006E8028333E4B2946C4F8D030C4E91955C4E91D
S31508006E90355584F858B0A4F85AA0E56584F86C50BE
S31508006EA06467C4F89850C4F8C050C4F8DC5004F1BC
S31508006EB0E000C4F022FB84F8F0B0A4F8F2A0C4F80D
S31508006EC0F45004F1F800AEF003FD4AF6C873C82280
S31508006ED084ED428B84ED448BC4E9462304F598730C
S31508006EE0C4E94C3384F80051A4F80451C4F8285175
S31508006EF084F82C51C4F850513368E36073682361F1
S31508006F00B3686361F368A3613369E36173692362F4
S31508006F10337E84F824302BB1D6E9070104F128031F
S31508006F2083E8030030469AF0EDFEB0B9B9F1000FD8
S31508006F3013D0B8F1000F10D003CF3B78C4F83090C7
S31508006F4084F84030012384F8283104F10803A0634B
S31508006F50E163C4F8C880C4F8DC30204609B0BDEC4B
S31508006F60028BBDE8F08F00BF0000000000000000A3
S31508006F7000800D08608D0120C07F0D08EC7F0D088C
S31508006F802DE9F04F2DED028B9946002300240025AC
S31508006F90CDB08DF8C83049938DF828319C4BCDE992
S31508006FA02E45CDE93045CDE934450C934FF6FF74AF
S31508006FB00123DFF874A2064688461746CDF8D8A0FE
S31508006FC0ADF820410D936AB1054600F53E74A54219
S31508006FD000F00C8128469BF071FF002800F008811C
S31508006FE09835F4E7A7F067FF044630B9AC24204685
S31508006FF04DB0BDEC028BBDE8F08F06F53E75284610
S3150800700099F032FDB4F868308DF8C880ADF82031B3
S3150800701094ED028B6A3420212046C4F0D7FBCDE9D3
S315080070200C407C4B4FF4C8710E93002309A8CDE998
S3150800703009330F930B93CDF870A0A2F025FC099B9A
S3150800704053B90B240BA89AF07AFD0AA89AF077FD93
S3150800705009A89AF074FDCAE74FF4C8710AA8A2F005
S3150800706013FC0A9B002BECD04FF4C8710BA8A2F0B6
S315080070700BFC0B990029E4D0099B0A9A10934FF44C
S31508007080C8733046CDE91223CDE9141310AA414638
S315080070901193A7F06DFF08B10446D3E74146304681
S315080070A012AAA7F047FF0028F6D14146304614AA8F
S315080070B0A7F01DFF0028EFD1109B0DF1B80A169313
S315080070C0119B0DF1700B1793129B8DED008B189386
S315080070D0139BCDE905AB1993149B1AAA1A93159B12
S315080070E018A91B9336AB079330AB049334AB0393C1
S315080070F00EAB029316A84AF04DF90028CCD10BA87E
S315080071009AF01DFD0AA89AF01AFD09A89AF017FD2B
S31508007110B9F1000F13D1D6F8940300285AD00368A2
S315080071209B689847D6F894331A6800284AD0546959
S3150800713041465A461846A04798B1044657E7D9F833
S31508007140003048465B699847036859465B6A984722
S3150800715008B9C5244BE79DF86031CDF824918DF820
S31508007160283151462846A8F061F90028E5D1284675
S315080071700CA9A7F06DFE2B7C77B302211120264AB5
S31508007180ADF04CFFD5E90012AB69CDE901210093BA
S3150800719002211120EB69214AADF040FF0F9906F54F
S315080071A069704CF04BFB034620B1012111201C4AA3
S315080071B0ADF034FF27B196F8B233013386F8B2330F
S315080071C0002414E741461846D26890470028C8D1DB
S315080071D010240CE703240AE7D5E900121120CDE9AB
S315080071E0002102210F4AADF019FFD7E70B24FEE66E
S315080071F0BDF864319FED048BADF820318DF8C88059
S315080072000FE700BFAFF30080000000000000000099
S3150800721004130D08B4520E08E0510E0800520E0869
S3150800722078520E0843520E083C960E0800000000DD
S315080072302DE9F0478AB00DF10D0301931523064693
S3150800724000934FF48072002308460C46ACF05DFDAF
S31508007250D8B9B37B0122009320460023ACF0DCFCAE
S3150800726098B9F37B0222009320460023ACF0D4FCA5
S3150800727058B90DF10E0301931623032200932046F5
S315080072800023ACF042FD054610B10AB0BDE8F08710
S3150800729037464FF010090DF1180810220021404614
S315080072A0C4F02BF90DF10F03019315234FF48072E7
S315080072B0009320460023ACF028FD0028E5D1F27B98
S315080072C0EBB29A4250D997ED047BC446B7F818A09A
S315080072D007F11A0307F12A0E624618685968083337
S315080072E003C273459446F7D18DED007B0422002333
S315080072F02046ACF06CFC0028C7D1052200232046A6
S31508007300CDF800A0ACF088FC0028BED1404649461E
S3150800731006228DE8030000232046CDE90489ACF057
S31508007320B0FD0028B1D120469DF90F10ACF01CFD28
S31508007330013530370028A8D1032DAED120469DF956
S315080073400E10ACF011FD00289FD1F3880722009398
S3150800735020460023ACF060FC002896D120469DF913
S315080073600D10ACF001FD90E782469FED017BBBE76F
S315080073700000000000000000054B186803689969C2
S3150800738001A3D3E90023084700E0373B015D03006A
S3150800739078150020000000002A2110B57248ADF5C6
S315080073A0956D029152F0E2FD08B1C3F0F2FF02902A
S315080073B002A96D4852F094FC0028F6D1029B2A2BAC
S315080073C0F3D167A3D3E900236848CDE9082352F02F
S315080073D0E5FD0028E9D100220023644808A9CDE983
S315080073E0082352F0A1FC0028DFD1DDE9080240F6A7
S315080073F0FA035F499A4208BF8842D6D101215D48FF
S315080074008DF8071052F09AFD0028CED18DF80700A6
S315080074100DF10701574852F03BFC0028C5D19DF8ED
S315080074200730002BC1D0504852F0AEFB0028BCD123
S315080074304D4803A952F054FC40F20124A042B4D1AD
S315080074404D494E48AEF066FD0028AED140224B4865
S3150800745004AB0AA952F090FC0028A6D1049B0E2B77
S31508007460A3D10F2244490AA8C4F010F800289CD1D9
S3150800747043494248AEF04EFD002896D104AB40225F
S315080074803E480AA952F078FC049B03438DD19DF827
S315080074902810002989D13948AEF03CFD002884D14E
S315080074A04022364805AB1AA952F066FCA0427FF482
S315080074B07CAFF1223349344852F0A2FD00287FF40C
S315080074C074AF4FF40072304806AB2AA952F0A2FCFA
S315080074D000287FF46AAF069AF12A7FF466AF294935
S315080074E02AA8C3F0D3FF024600287FF45EAF014600
S315080074F0254852F085FD00287FF457AF4FF40072F7
S31508007500214807ABAAA952F085FCA0427FF44DAFEB
S31508007510164852F045FB00283FF447AF154852F08D
S315080075203FFB00283FF441AF174852F039FB0028CB
S315080075307FF43BAF52F08EFB00287FF436AF0B4842
S3150800754052F02EFB00283FF430AF0A4852F028FBD1
S3150800755000287FF42AAF0DF5956D10BDAFF30080B6
S31508007560316EE595FA0800000573080001720800F7
S31508007570316EE59506730800B98E0E080273080089
S31508007580B88E0E08C78D0E080272080000000000AB
S31508007590002370B5404C05468AB0E36318B10088ED
S315080075A0236067F00DFE3D48C2F019FA3C4E3D4B8C
S315080075B0304633603C4B736067F0D4FF0021304699
S315080075C073F0FAF832A3D3E90023A062C4E90623CC
S315080075D0BCF090FED4E90623194310434FF0FF335D
S315080075E0C4E90601CDE900014FF0FF32A06AC2F0F6
S315080075F0C6FA02224FF0FF31A06AC2F0DBFA012078
S3150800760067F044FB4FF4007300222849A06AC2F0D1
S3150800761016FCB0F5007F38D100239422CDE9073354
S3150800762009933C23CDE9033205939623A06A03A95F
S31508007630069373F0DDFC35B3287C68F051F80546EF
S31508007640F0B9A06AC2F0D5FD67F0F2FF67F000FB5B
S3150800765020B14FF48070002164F060FB67F008FBEE
S3150800766020B14FF40060002164F058FBBCF007FE1F
S315080076700120C1F048FF0E4A0E49A06ABCF02EFE52
S3150800768028460AB070BDFF20D7E70725F8E700BFF0
S315080076900DD501552000000058370120690345EC37
S315080076A09061022019F4060884610220845F022092
S315080076B085420C08C5420C0810B5054C237833B929
S315080076C0044B13B1044800E000BF0123237010BD2A
S315080076D0C03C01200000000094360F0808B5034B93
S315080076E01BB10349034800E000BF08BD00000000C5
S315080076F0C43C012094360F08A3F5803A704700BFB2
S31508007700174B002B08BF134B9D46FFF7F5FF0021CB
S315080077108B460F461348144A121AC3F0EEFE0E4B58
S31508007720002B00D098470D4B002B00D0984700201F
S31508007730002104000D000D48002802D00C48C3F0B3
S315080077402FFE7DF0B7FF2000290060F077F97DF065
S315080077509DFD00BF000008000000000000000000BA
S3150800776000120020101C0020EC300320A1B30C08E6
S315080077700000000010B5224C03F0B2FE236F23F080
S31508007780070343F0020323677FF07BFED4F820311A
S31508007790002023F0070343F00103C4F82031D4F88E
S315080077A0283123F0070343F00103C4F82831D4F83D
S315080077B0403123F0030343F00203C4F84031D4F800
S315080077C0603123F0030343F00203C4F86031D4F8B0
S315080077D0403223F0030343F00203C4F84032D4F8DE
S315080077E0003223F0070343F00203C4F80032D4F84A
S315080077F0083223F0070343F00203C4F8083210BD29
S315080078000080005008B504487FF04CFCBDE80840ED
S3150800781002487FF047BC00BFB8BB0C08D0BB0C08B9
S3150800782008B504487FF06CFCBDE8084002487FF0C4
S3150800783067BC00BFE8BB0C0800BC0C0818B1034BBA
S315080078401860002070472520704700BF3C3D012086
S3150800785010B5054C0549206802F068FD2068BDE8AA
S315080078601040FFF7EBBF00BF381200200C120020B3
S3150800787070B58B680646012B0D4614468CB023D08E
S31508007880022B31D0002B3CD119461C2205A8C3F087
S3150800789034FE214605A8B5F068FB044630B92946EA
S315080078A0304605AA37F0C0FE00283BD12946852276
S315080078B030469AF091FC234602211D201A4A0CB044
S315080078C0BDE87040ADF0AABB0023114605A8ADF887
S315080078D01430B5F094FB04460028E7D12946304613
S315080078E005AA37F02DFFDFE7114605A8B5F0B3FB6B
S315080078F004460028DAD12946304605AA37F088FF1B
S31508007900D2E781229AF068FCD5E9012391B2120CDC
S3150800791001929AB20291009201211D20034A1B0C82
S31508007920ADF07CFB0CB070BD4CBC0C0818BC0C0848
S3150800793070B58B6806460C4688B0EBB9114604A8A4
S31508007940ADF810308DF81430B6F044F9054628B96C
S315080079502146304604AA9FF036FBF0B92146852217
S3150800796030469AF039FC2B4602211D200C4A08B0F5
S31508007970BDE87040ADF052BB81229AF02DFCD4E9E7
S31508007980012391B2120C01929AB20291009201213E
S315080079901D20044A1B0CADF041FB08B070BD00BFAA
S315080079A04CBC0C0818BC0C0870B58B6806460D460E
S315080079B014468CB0262B00F28A81DFE813F02700E4
S315080079C046008801560088018801880188018801D7
S315080079D088018801680080009200A400B500C800EC
S315080079E0DB00EF0000018801880188018801880111
S315080079F088011101290188013A0188018801880155
S31508007A0088014B018801640188017701002321461A
S31508007A1004A88DF81030B7F062F8044638B929463C
S31508007A20304604AA3AF0FAFD002840F0618129465A
S31508007A30852230469AF0D0FB234602211D20AD4A06
S31508007A400CB0BDE87040ADF0E9BA0023214604A8A1
S31508007A508DF81030B7F06FF804460028E7D12946AC
S31508007A60304604AA3AF0F6FDDEE70023214604A8CC
S31508007A70ADF810308DF81430B7F089F804460028B0
S31508007A80D5D12946304604AA3AF00EFECCE70023A3
S31508007A90214604A88DF81030ADF81230ADF8143030
S31508007AA0ADF816308DF81830B8F04FFE04460028A9
S31508007AB0BDD12946304604AA39F0D4FFB4E70023DD
S31508007AC0214604A88DF81030ADF81230B5F060FDE7
S31508007AD004460028ABD12946304604AA3AF0AEFE41
S31508007AE0A2E70023214604A88DF81030ADF812301D
S31508007AF0B5F083FD0446002899D12946304604AAE4
S31508007B003AF076F890E70023214604A8CDE9043335
S31508007B100693B5F0A7FD0446002888D129463046C5
S31508007B2004AA3AF02FF97FE70023214604A88DF826
S31508007B301030ADF81230B5F0DAFD044600287FF4AF
S31508007B4076AF2946304604AA39F0FAFD6CE70023D9
S31508007B50214604A88DF81030ADF81230B5F0FCFDBA
S31508007B60044600287FF463AF2946304604AA3AF053
S31508007B70C9F959E7102200210DEB0200C3F0BDFC3C
S31508007B80214604A8B7F0B7FF044600287FF44FAF94
S31508007B902946304604AA39F0E3FD45E70023214685
S31508007BA004A88DF81030B5F00CFE044600287FF4C2
S31508007BB03EAF2946304604AA39F0E6FD34E70023ED
S31508007BC0214604A88DF81030B5F027FE0446002893
S31508007BD07FF42DAF2946304604AA39F0E1FD23E7A4
S31508007BE00023214604A88DF81030ADF8123005930D
S31508007BF008930A93ADF82C30B8F005F90446002826
S31508007C007FF415AF2946304604AA3BF0C1FC0BE7C2
S31508007C100023214604A8ADF81030B5F02AFE044624
S31508007C2000287FF404AF2946304604AA3AF01AFB26
S31508007C30FAE60023214604A8ADF81030B5F045FE53
S31508007C40044600287FF4F3AE2946304604AA3AF0E3
S31508007C5023FAE9E60023214604A8CDE90633CDE94F
S31508007C6008338DF810308DF81230ADF81430B8F0AE
S31508007C704CF8044600287FF4DAAE2946304604AAB2
S31508007C803BF040FED0E60023214604A88DF81030CC
S31508007C90ADF81230B5F045FE044600287FF4C7AEAD
S31508007CA02946304604AA39F03BFDBDE600232146A5
S31508007CB004A88DF81030B5F060FE044600287FF45D
S31508007CC0B6AE2946304604AA3BF088FBACE68122CC
S31508007CD09AF082FAD5E9012391B2120C01929AB26E
S31508007CE00291009201211D20034A1B0CADF096F962
S31508007CF00CB070BD4CBC0C0818BC0C0870B58B6871
S31508007D0006460C4686B0CBB9114605A8B5F02AF941
S31508007D10054628B92146304605AA9FF045FEF0B922
S31508007D202146852230469AF057FA2B4602211D2015
S31508007D300C4A06B0BDE87040ADF070B981229AF0E1
S31508007D404BFAD4E9012391B2120C01929AB202912C
S31508007D50009201211D20044A1B0CADF05FF906B004
S31508007D6070BD00BF4CBC0C0818BC0C0870B58B68FD
S31508007D700646022B0D4614468AB024D0042B34D06E
S31508007D80002B3FD10022ADF810300023214604A86D
S31508007D90CDE90623B4F006FF044630B92946304635
S31508007DA004AA3BF0F1FE00283DD12946852230463B
S31508007DB09AF012FA234602211D201C4A0AB0BDE891
S31508007DC07040ADF02BB91822002104A8C3F095FB2A
S31508007DD0214604A8B7F048F904460028E5D1294603
S31508007DE0304604AA3BF0F2FFDDE7114604A8B4F0DA
S31508007DF00FFF04460028D8D12946304604AA3BF08E
S31508007E0041FFD0E781229AF0E7F9D5E9012391B23B
S31508007E10120C01929AB20291009201211D20044A85
S31508007E201B0CADF0FBF80AB070BD00BF4CBC0C08CB
S31508007E3018BC0C0870B58B6806460C4688B0FBB9AA
S31508007E4000200021CDE90601114604A8CDE9043336
S31508007E50B4F09AFF054628B92146304604AA3CF0F4
S31508007E6085FAF0B92146852230469AF0B5F92B46AF
S31508007E7002211D200C4A08B0BDE87040ADF0CEB80E
S31508007E8081229AF0A9F9D4E9012391B2120C019240
S31508007E909AB20291009201211D20044A1B0CADF0F2
S31508007EA0BDF808B070BD00BF4CBC0C0818BC0C0867
S31508007EB070B58B6806460D4614469CB0042B64D8EC
S31508007EC0DFE803F0032F633F4F000023214604A891
S31508007ED0ADF810308DF812308DF814308DF820304A
S31508007EE08DF830308DF840308DF850308DF8603090
S31508007EF0B7F064FA044630B92946304604AA3CF07D
S31508007F00BBFA002852D12946852230469AF064F9F0
S31508007F10234602211D20264A1CB0BDE87040ADF05C
S31508007F207DB80023214604A8ADF81030B5F06FFAE5
S31508007F3004460028E7D12946304604AAA0F050FA9C
S31508007F40DFE70023214604A8ADF81030B5F08BFA18
S31508007F5004460028D7D12946304604AA3CF06CFBD3
S31508007F60CFE7002204A811468DF84820ABF073F835
S31508007F70214604A8B8F09DF904460028C3D129462D
S31508007F80304604AAA0F0B1F8BBE781229AF024F99A
S31508007F90D5E9012391B2120C01929AB2029100928C
S31508007FA001211D20034A1B0CADF038F81CB070BD2A
S31508007FB04CBC0C0818BC0C0870B58B6806460D46F8
S31508007FC0144694B0052B77D8DFE803F0032333472C
S31508007FD057640023214604A8CDE90533ADF81030CF
S31508007FE0B4F0F3F8044630B92946304604AAA0F09E
S31508007FF079FA002871D12946852230469AF0ECF89C
S31508008000234602211D20364A14B0BDE87040ADF063
S3150800801005B80023214604A8ADF81030B4F02EF9AF
S3150800802004460028E7D12946304604AAA0F095FA66
S31508008030DFE7002204A811468DF84820ABF00BF8BC
S31508008040214604A8B8F009F904460028D3D12946E0
S31508008050304604AA3CF04EFFCBE70023214604A88D
S31508008060ADF81030B4F067F904460028C3D12946A4
S31508008070304604AA3CF086FEBBE7214604A8B4F0C5
S31508008080AAF904460028B6D12946304604AA3CF087
S31508008090D7FEAEE70023214604A8CDE90533ADF89F
S315080080A01030B4F0B6F904460028A4D12946304663
S315080080B004AA3CF0E7FE9CE781229AF08DF8D5E900
S315080080C0012391B2120C01929AB2029100920121F7
S315080080D01D20044A1B0CACF0A1FF14B070BD00BFF4
S315080080E04CBC0C0818BC0C0870B58B6806460D46C7
S315080080F086B0A3B1402B2FD081229AF06DF8D5E92E
S31508008100012391B2120C01929AB2029100920121B6
S315080081101D201A4A1B0CACF081FF06B070BD114633
S3150800812005A8ADF81430B3F0D6FF044630B9294691
S31508008130304605AAA0F0D3FA0028EED129468522B2
S3150800814030469AF049F8234602211D200C4A06B00B
S31508008150BDE87040ACF062BF0023114605A88DF853
S3150800816014308DF81530B3F0E2FF04460028E5D147
S315080081702946304605AA3CF05FFFDDE718BC0C0827
S315080081804CBC0C0870B50D46AB680646114686B061
S31508008190072B00F2AE80DFE803F004263B4E5F7241
S315080081A0879A002304A88DF81030ADF81230ADF880
S315080081B01630B8F0B6F8044638B92946304604AA47
S315080081C0A0F0C5FA002840F0A68029468522304648
S315080081D09AF002F8234602211D20504A06B0BDE84F
S315080081E07040ACF01BBF002304A88DF810308DF842
S315080081F011308DF813308DF81430B8F0D6F80446DF
S315080082000028E2D12946304604AA3DF0A1FCD9E768
S31508008210002304A8ADF81030ADF81230ADF81630CA
S31508008220B8F007F904460028CFD12946304604AAF3
S315080082303DF0D2FDC6E7002304A88DF810308DF86E
S315080082401130B8F040F904460028BED12946304618
S3150800825004AA3DF051FEB5E7002304A88DF81030B6
S31508008260ADF81230ADF81630B8F05FF904460028BC
S31508008270ABD12946304604AA3DF0BAFAA2E7002354
S3150800828004A88DF810308DF811308DF813308DF85C
S315080082901430B8F08EF90446002896D1294630469F
S315080082A004AA3DF097FC8DE7002304A8ADF810302A
S315080082B0ADF81230ADF81630B8F0BFF9044600280C
S315080082C083D12946304604AA3DF0CEFD7AE700233D
S315080082D004A88DF810308DF81130B8F0F8F9044676
S315080082E000287FF472AF2946304604AA3DF026FEE0
S315080082F068E78122294699F06FFFD5E9012391B2F3
S31508008300120C01929AB20291009201211D20044A90
S315080083101B0CACF083FE06B070BD00BF4CBC0C084D
S3150800832018BC0C0870B58B6806460C468CB02BBB7F
S3150800833000200021CDE90401114604A8ADF8183043
S315080083408DF81A308DF81C30ADF82830B6F006FDD9
S31508008350054628B92146304604AA41F01DFFF0B962
S3150800836021468522304699F037FF2B4602211D20EB
S315080083700C4A0CB0BDE87040ACF050BE812299F0B2
S315080083802BFFD4E9012391B2120C01929AB2029101
S31508008390009201211D20044A1B0CACF03FFE0CB0D4
S315080083A070BD00BF4CBC0C0818BC0C0870B50D4657
S315080083B0AB680646402B114686B062D019D8012B09
S315080083C047D0022B51D053B381222946304699F023
S315080083D003FFD5E9012391B2120C01929AB20291D8
S315080083E0009201211D20354A1B0CACF017FE06B081
S315080083F070BD412B56D0422BE6D1002304A88DF838
S315080084001030ADF81230ADF81430B4F081F80446E7
S3150800841088B92946304604AA3EF086FD09E004A834
S31508008420B4F02CF8044630B92946304604AA3EF082
S3150800843053FD0028DBD129468522304699F0CCFE2B
S31508008440234602211D201E4A06B0BDE87040ACF046
S31508008450E5BD04A8B4F015F804460028EBD1294672
S31508008460304604AA3EF040FDE3E704A8B4F00CF851
S3150800847004460028DFD12946304604AA3EF03CFDD2
S31508008480D7E7002304A88DF810308DF81130B3F023
S31508008490FEFF04460028CED12946304604AA3EF0FF
S315080084A033FDC6E704A8B4F030F804460028C2D164
S315080084B02946304604AA3EF02FFDBAE718BC0C0838
S315080084C04CBC0C082DE970430D46AB6806461146B0
S315080084D090B00B2B00F2A080DFE803F0069E249EE6
S315080084E0339E445F9E707F8E002304A8CDE9043333
S315080084F0B4F0B4FD044638B92946304604AA3FF01C
S3150800850033FB002840F09A8029468522304699F0A8
S3150800851063FE234602211D204A4A10B0BDE8704377
S31508008520ACF07CBD002304A88DF81030B4F0EFFD44
S3150800853004460028E8D12946304604AA3FF0BEFA88
S31508008540DFE7002304A8CDE904338DF81830B6F028
S3150800855050FA04460028D7D12946304604AA3FF0E7
S31508008560C9FBCEE700234FF000084FF0000904A826
S31508008570CDE90433CDE90933CDE90C898DF81830F6
S31508008580ADF83830B6F038FB04460028BCD1294689
S31508008590304604AA3FF0B8F8B3E7002304A8CDE9AB
S315080085A004338DF81830B6F064FA04460028ABD1C7
S315080085B02946304604AA3EF09BFFA2E7002304A8FA
S315080085C0CDE90433B4F027FE044600289CD1294699
S315080085D0304604AA3EF012FF93E7002304A88DF85C
S315080085E01030B4F044FE044600288DD129463046A2
S315080085F004AA3EF08FFE84E7002304A8CDE90433DD
S31508008600B4F061FE044600287FF47EAF2946304662
S3150800861004AA3FF017F874E78122294699F0DCFD91
S31508008620D5E9012391B2120C01929AB202910092F5
S3150800863001211D20044A1B0CACF0F0FC10B0BDE86B
S31508008640708300BF4CBC0C0818BC0C0870B58B684E
S3150800865006460C4686B0CBB9114605A8B4F0ECFB25
S31508008660054628B92146304605AAA2F0E9FBF0B925
S3150800867021468522304699F0AFFD2B4602211D2062
S315080086800C4A06B0BDE87040ACF0C8BC812299F02F
S31508008690A3FDD4E9012391B2120C01929AB2029178
S315080086A0009201211D20044A1B0CACF0B7FC06B051
S315080086B070BD00BF4CBC0C0818BC0C0870B58B68A4
S315080086C006460C4686B0CBB9114605A8B4F0DBFBC6
S315080086D0054628B92146304605AA41F01FFEF0B9DD
S315080086E021468522304699F077FD2B4602211D202A
S315080086F00C4A06B0BDE87040ACF090BC812299F0F7
S315080087006BFDD4E9012391B2120C01929AB202913F
S31508008710009201211D20044A1B0CACF07FFC06B018
S3150800872070BD00BF4CBC0C0818BC0C0870B58B6833
S3150800873006460C4686B0CBB9114605A8B4F0A6FB8A
S31508008740054628B92146304605AAA2F03CFEF0B9EE
S3150800875021468522304699F03FFD2B4602211D20F1
S315080087600C4A06B0BDE87040ACF058BC812299F0BE
S3150800877033FDD4E9012391B2120C01929AB2029107
S31508008780009201211D20044A1B0CACF047FC06B0E0
S3150800879070BD00BF4CBC0C0818BC0C0837B5436844
S315080087A004463F2B154659D8292B12D8DA1E052A16
S315080087B042D99AB2009201211D206A4A1B0CACF0DC
S315080087C02DFCC3222146284603B0BDE8304099F067
S315080087D003BDA3F12A02152AEBD801A050F822F00E
S315080087E005890008B3870008B3870008B38700081F
S315080087F0B3870008B3870008A5880008B387000870
S3150800880085880008B5880008358900084589000864
S315080088105589000895880008B3870008B3870008BB
S31508008820B3870008B387000875880008B38700086F
S3150800883025890008C5880008052ABAD801A050F875
S3150800884022F000BFE5880008D5880008B38700082D
S3150800885015890008B3870008F588000840F2011258
S315080088609342A6D10A460146284603B0BDE83040E1
S31508008870FFF79AB80A462846214603B0BDE83040B5
S31508008880FEF7F6BF0A462846214603B0BDE8304043
S31508008890FFF74EB80A462846214603B0BDE83040E1
S315080088A0FFF72CBA0A462846214603B0BDE83040F1
S315080088B0FFF75CBA0A462846214603B0BDE83040B1
S315080088C0FFF7B8BA0A462846214603B0BDE8304045
S315080088D0FFF7EEBA0A462846214603B0BDE83040FF
S315080088E0FFF76ABB0A462846214603B0BDE8304072
S315080088F0FFF7FABB0A462846214603B0BDE83040D2
S31508008900FFF740BC0A462846214603B0BDE830407A
S31508008910FFF708BD0A462846214603B0BDE83040A1
S31508008920FFF744BD0A462846214603B0BDE8304055
S31508008930FFF7C8BD0A462846214603B0BDE83040C1
S31508008940FFF784BE0A462846214603B0BDE83040F4
S31508008950FFF7B4BE0A462846214603B0BDE83040B4
S31508008960FFF7E4BE75BC0C082DE9F043044689B050
S31508008970214E01AD884617460FCE0FC596E807006B
S3150800898085E807001D4E01213A20D4F80090D6F854
S31508008990205702F01BF96068012102F017F9617B84
S315080089A0207B0023042203F02BFB0422617A207A21
S315080089B0002303F025FB0123484601A98DF8123050
S315080089C0CDF80C80ADF8147003F0F8FC0020627A3C
S315080089D0237A05F0040543EA0243C6F83837627B72
S315080089E0237B45F0180543EA0243C6F83437C6F830
S315080089F0205709B0BDE8F08394BC0C0800C00350AA
S31508008A004022024BC3F8A020704700BF00F0035075
S31508008A1013B5044609F046FD00230122247BCDE95F
S31508008A2000326400B0FBF4F1024A034880F05FFEAE
S31508008A3002B010BD018A0008403D0120F7B54FF489
S31508008A408076104C054604F58053C3F8A060407B39
S31508008A5009F050FF04230C4F02220DF10601384697
S31508008A60ADF806307EF0FFF938467EF00DFAA87BA1
S31508008A7009F040FF002004F50054C4F8A06003B0D4
S31508008A80F0BD00BF00C003503C13002070B5064679
S31508008A90354601213A2002F099F8B16800220F48BC
S31508008AA0FFF762FF0E4C002304220821022003F080
S31508008AB0A7FA002304220621022003F0A1FA0FCD0B
S31508008AC00FC401222B6830462360064B1A70FFF745
S31508008AD09FFF3046FFF7B2FF002070BD3C13002011
S31508008AE0603D0120F66B02202DE9F74F14464FF43E
S31508008AF0807206889846037901345E43254BA4B2F2
S31508008B00C3F8A0200546407B0F4609F0F3FE230272
S31508008B1043F00103022220480DF10601ADF80630A4
S31508008B204FF000097EF09FF901342402DFF868B09F
S31508008B30F610A4B208F1FF3AC14511D116487EF0E5
S31508008B40A3F9A87B09F0D6FE4FF48072134B12489E
S31508008B50C3F8A0207EF09DF9002003B0BDE8F08F91
S31508008B603946324658467EF07EF9CA450CBF4FF65E
S31508008B70FF7344F0FF03022258460DF1060104F57F
S31508008B808074ADF8063037447EF06DF909F10109B5
S31508008B90A4B2D1E700D003503C13002000E00350F4
S31508008BA0034B04481B78002B08BF0020704700BF02
S31508008BB0F66B0220603D012030B5064D87B001AC4A
S31508008BC00FCD0FC42B6801A82360FFF75FFF07B01E
S31508008BD030BD00BFB0BC0C082DE9F043434D89B049
S31508008BE001AC0FCD0FC495E80700012584E80700FE
S31508008BF001213A2001F0EAFF3D4F0121292001F029
S31508008C00E5FF3C4B384601A903938DF8125003F053
S31508008C10D5FB2B4629460422022003F0F1F902214E
S31508008C202A460846002303F0EBF92B4604220321C3
S31508008C30022003F0E5F904222B461146022003F030
S31508008C40DFF92D4C2D4B1026C4F834374FF002139C
S31508008C50C4F83037A3F58033C4F838371C2304F535
S31508008C600059C4F820374FF4487009F043FE04F55C
S31508008C7080581420C9F8A06009F03CFE2320C8F8E3
S31508008C80A06009F037FEB9213846C9F8A0607EF021
S31508008C9006FD002329461A460220C8F8A06003F0FC
S31508008CA0AFF9002302211A46084603F0A9F92B4614
S31508008CB000220321022003F0A3F92B4600220421F7
S31508008CC0022003F09DF9384603F056FB00212920BF
S31508008CD0C4F83417C4F83017C4F83817C4F820177E
S31508008CE001F074FF09B0BDE8F08300BFC4BC0C08EE
S31508008CF000C0055000127A0000C0035002000300AD
S31508008D0008B500F02DF8124B12498B4212D30020F9
S31508008D10114B12498B4218D3FEF7F2FC186850F82B
S31508008D202240586840F82240013298688242F5D3BA
S31508008D300C33EAE70022F8E71C6844F822000132FF
S31508008D405C68A242F8D30833E4E70022F8E700BFDC
S31508008D509C360F08A8360F08A8360F08A8360F083D
S31508008D604FF480414FF0FF3010B5114B114A9A600D
S31508008D70D3F8882042F47002C3F888200E4A916618
S31508008D800E4901F5005210660D4850660220C3F8D8
S31508008D90D000BFF34F8FBFF36F8F01244FF44033DA
S31508008DA00848C0F88041D36004600B6110BD00BF5D
S31508008DB000ED00E0006000080090005000800044CC
S31508008DC0F7FF370000E100E0014B1868704700BF65
S31508008DD050130020014B1860704700BF5013002045
S31508008DE0084B1B6F03F00703022B04D0032B05D097
S31508008DF0012B05D0FEE7044B18687047034BFBE7C9
S31508008E000348704700800050501300205413002078
S31508008E10002D310108B5FFF7E3FF054B1B6FC3F3C0
S31508008E2003330133B0FBF3F0024B186008BD00BFF3
S31508008E30008000504C1300200048704700B4C4045A
S31508008E40014B1868704700BF54130020054B186083
S31508008E50054B1B6F03F00703032B01D1FFF7DABF9E
S31508008E60704700BF54130020008000500048704728
S31508008E70002D31014FF0B4439868C0F304400C2824
S31508008E8022D8DFE800F0092121212121071719211D
S31508008E901B1D1F000F4870479B6803F04073B3F112
S31508008EA0807F13D0B3F1007F12D00B4A002B08BF86
S31508008EB0104670470948704709487047094870477F
S31508008EC009487047094870470020704708487047A6
S31508008ED008487047405DC60000093D000024F400BC
S31508008EE0C0EA210180BA8C010048E801005A6202F2
S31508008EF080841E0040420F00014B1868704700BF6F
S31508008F0058130020BFF34F8F0549064BCA6802F471
S31508008F10E0621343CB60BFF34F8F00BFFDE700BF8E
S31508008F2000ED00E00400FA054FF000639A6A02F1CA
S31508008F307841B1F5C04F03D21168074A914203D070
S31508008F400023037083607047012202709A6A926850
S31508008F5042609B6A9B69F5E707B0CD5E08B54FF09E
S31508008F600053024A1A60FFF7CDFF00BF02020FF056
S31508008F7073B54F4B04461A781AB102221A7002B01A
S31508008F8070BDCDE900220028F9D001261E707EF0BA
S31508008F9094FA484D484B186077F052FB2B785BB92A
S31508008FA000F0A2FD40B945480823454A45490068EE
S31508008FB070F0CCFE00B92E70434B5A6E62619B6E00
S31508008FC0424AA3614FF480439366414B5968E16175
S31508008FD040499960196E2160596E6160D3F8701125
S31508008FE0A160196CE160596C21613B49086C1864F1
S31508008FF0496C5964012151661B6E9C0441D5374A58
S31508009000D368D807FCD4364B1A68531C3ED04FF4A5
S3150800901080139340334A13664FF400730426314C89
S31508009020266623667DF0A1FF01300DD07DF09DFFF9
S3150800903040F20113984207D04FF4005323664FF4C9
S3150800904080432366C4F870610823264C6846236665
S315080090504FF4805323664FF0006323664FF40023D2
S3150800906001A963667DF028FF009B2366019B636662
S315080090702B78002B83D0124B1A6822665B686366CE
S315080090807DE7194AD368D907FCD4BCE7174B1B7888
S31508009090002BC1D14FF400720C4B5A6603F5A62378
S315080090A05B68002BB8D14FF480120E4B1A66B3E7F3
S315080090B0F96B0220F76B02209C3D0120601300200B
S315080090C0943D012000710800008000500090005077
S315080090D00080004455CEAC0000C000540000044097
S315080090E05C1300200090004400000450F86B022036
S315080090F070B5224D04462E78012E02D001232B701E
S3150800910070BD0028FCD07DF030FF01300BD07DF01B
S315080091102CFF40F20113984205D0194B194A5E6696
S31508009120D368DE07FCD42268174B1A6662685A664B
S31508009130A268C3F87021E2681A6422695A64E2696F
S31508009140D00744BF00229A60104B1A68013207D133
S315080091500F4A127822B90F494968C90748BF1A60E9
S3150800916062690D4B5A66A2699A6677F071FA0B4BDB
S3150800917018687EF0A8F90023C1E700BFF96B022042
S315080091800090004000000440008000445C1300206A
S31508009190F86B022000C00550008000509C3D01205D
S315080091A070B54FF00064A36A03F17842B2F5C04F78
S315080091B021D21A68124B9A421DD1124E337813F0F7
S315080091C0FD0F1BD11048FFF7D3FE01254FF480335E
S315080091D00E4A0F49C2F88051CB6015600D4A1361DB
S315080091E0A36ADB69984704460748FFF781FF04B975
S315080091F03570204670BD4FF48174FAE70024F8E70D
S3150800920007B0CD5EF86B0220743D012000E100E056
S3150800921000A000440090004413B51F4B1B7803B907
S31508009220FEE700231D4CCDE900336A4608231C4996
S31508009230206870F08BFDF0B91A4AD2F84031D2F89E
S3150800924040211F2B4FF0010310D9203A9340019A71
S315080092501343019308236A461149206870F02CFDD0
S315080092604FF00053104A1A60FFF74CFE9340009ADD
S3150800927013430093EEE70D4B9842F1D1094AD2F811
S315080092804031D2F840211F2B4FF0010302D9203A72
S315080092909340DEE79340ECE7F96B02206013002069
S315080092A000710800008000440B020FF00BE000F08C
S315080092B038B54FF00065AB6A044603F17842B2F55B
S315080092C0C04F12D21B6B03F17843B3F5C04F0CD2D3
S315080092D00648FFF74DFEAB6A20461B6B5B6898474E
S315080092E0BDE838400148FFF703BF38BDA03D01205F
S315080092F013B54FF000640190A36A03F17842B2F502
S31508009300C04F15D21B6B03F17843B3F5C04F0FD28C
S315080093100948FFF72DFEA36A01211B6B01A89B696B
S31508009320984704460448FFF7E3FE204602B010BDFE
S315080093304FF48174F9E700BFA03D012037B54FF01F
S315080093400065CDE90021AB6A044603F17840B0F523
S31508009350C04F12D21B6B83B10948FFF709FEDDE93E
S315080093600021AB6A20461B6B5B6A98470446044893
S31508009370FFF7BEFE204603B030BD4FF40174F9E78F
S31508009380A03D012037B54FF000650191AB6A044650
S3150800939003F17842B2F5C04F15D21B6B03F178433F
S315080093A0B3F5C04F0FD20948FFF7E2FDAB6A204676
S315080093B01B6B01999B6A984704460448FFF798FE79
S315080093C0204603B030BD4FF40174F9E7A03D0120F3
S315080093D037B54FF00065CDE90021AB6A044603F1C5
S315080093E07840B0F5C04F16D21B6B03F17843B3F53E
S315080093F0C04F10D20948FFF7BBFDDDE90021AB6A73
S3150800940020461B6B9B6B984704460448FFF770FE83
S31508009410204603B030BD40F20114F9E7A03D012013
S3150800942037B54FF000650191AB6A044603F17842FF
S31508009430B2F5C04F15D21B6B03F17843B3F5C04F95
S315080094400FD20948FFF794FDAB6A20461B6B0199BA
S31508009450DB6B984704460448FFF74AFE204603B0EC
S3150800946030BD40F20114F9E7A03D012010B40A68A6
S315080094701378022B11D014203023147913FB04031C
S3150800948007481B585079C340DB4303F001031370A8
S3150800949008465DF8044B5EF023BB5DF8044B704745
S315080094A030C0035037B50468012105463A2001F05B
S315080094B08DFB002301226179207902F0A1FD142297
S315080094C03023217913FB01230E4A9B586279D34036
S315080094D0DB4303F001032370A379022B0ED100F0BE
S315080094E089FA2A460849607900F0AEFA012302464D
S315080094F061792079CDE9003302F02AFD002003B016
S3150800950030BD00BF30C003506D9400080268137860
S31508009510022B24D014213023107913FB0013104991
S315080095205B585179CB40917903F00103012912D197
S31508009530508843EA40034FF6E07063F03F039BB25E
S31508009540834202D11170538070474FF6DF718B4208
S31508009550F9D10021F6E711B983F0010313707047BA
S3150800956030C0035010B50122437801788478302042
S315080095709A40054B00FB01331CB903F501531A60E9
S3150800958010BD03F58253FAE700C0035010B5012257
S3150800959043780178847830209A40054B00FB0133E4
S315080095A01CB903F582531A6010BD03F50153FAE797
S315080095B000C003500122437801789A40302359436A
S315080095C0014B5A50704700BF40F00350102130231A
S315080095D00246007813FB0013054950785B58C340D0
S315080095E003F0010093780BB980F00100704700BFC3
S315080095F030C003502DE9F04F9A46554B85B01B787D
S3150800960006460F461546DDF83C909DF844B0DDF851
S315080096105080002B00F08C80072A00F28B800E9B6E
S31508009620002B00F08780B9F1000F00F08380129BB1
S31508009630B3F5006F7EDC012802D1109B002B79D090
S31508009640444B03EB05131B7B002B75D0424C1022B1
S3150800965000216846C1F051FF04EB45141022002F83
S3150800966058D139462046C1F048FF43F210036380BB
S31508009670BBF1000F03D1E37843F00303E370364AE6
S315080096800E9B02EB451CCCE90193129BCDF800A07A
S31508009690013BC3F30A009DF84C30690103F003034C
S315080096A09B0643EA001E53582C48012E00EA030085
S315080096B04EEA0003535041D113230CF1100ECCF897
S315080096C00C309CE80F008EE80F006FF00301DCF801
S315080096D01C20109B61F39F02012FCCF81C20CCF8AC
S315080096E0143003D1CCF81890CCF804300027194A66
S315080096F0290102EB051342F80180159A28465A609B
S31508009700694622469F605E7302F0FAFC384605B049
S31508009710BDE8F08F00212046C1F0EFFE4FF44473F8
S315080097206380BBF1000FAAD1E37843F03003A5E7C5
S315080097300B48ECE70B48EAE70B48E8E7B8F1000FF7
S31508009740D4D19CF8023068F304138CF80230CDE7C4
S31508009750FA6B0220C03D0120403E01200F80FFF336
S31508009760028000F0018000F0078000F038B5124B47
S3150800977005461B78DBB1E0B17DF09FFE0F4A00235A
S315080097801146147B54B92B6001251A0101EB03130A
S315080097901D738C507DF097FE204638BD0133082B8B
S315080097A002F11002EDD17DF08EFE0548F5E7054879
S315080097B0F3E70548F1E700BFFA6B0220C03D012038
S315080097C0048000F0028000F0018000F0154B13B50C
S315080097D01868002301908DF804307DF06EFE124B58
S315080097E01C7824B17DF06FFE104802B010BD01222E
S315080097F01A707DF068FE0E4B01A81C731C7783F85F
S315080098002C4083F83C4083F84C4083F85C4083F84E
S315080098106C4083F87C4008238DF8073002F03EFC44
S315080098202046E2E730BD0C08FA6B0220038000F000
S31508009830C03D012008B50A4A12785AB107280BD844
S31508009840084A02EB00131B7B43B1002102F018FC07
S31508009850002008BD0448FCE70448FAE70448F8E78E
S31508009860FA6B0220C03D0120028000F0018000F062
S31508009870078000F008B50A4A12785AB107280BD8AB
S31508009880084A02EB00131B7B43B1012102F0F8FBE7
S31508009890002008BD0448FCE70448FAE70448F8E74E
S315080098A0FA6B0220C03D0120028000F0018000F022
S315080098B0078000F00D4B1B7893B1072812D889B1A1
S315080098C00B4B03EB00131B7B73B10A4BDA6A0123BC
S315080098D003FA00F010401ABF00200B70087070479A
S315080098E0054870470548704705487047FA6B0220D7
S315080098F0C03D012000000450028000F0018000F005
S31508009900078000F010B50B4A0C46127862B107289A
S315080099100CD859B1084A02EB00131B7B43B102F07D
S3150800992037FC2060002010BD0448FCE70448FAE72D
S315080099300448F8E7FA6B0220C03D0120028000F0D7
S31508009940018000F0078000F02DE9F843174B1F6DE2
S315080099505B6D1F4000D5FEE701260025144CDFF895
S315080099605480DFF85490374217D0C8F850602368FF
S315080099709BB1A168284601316268A1609847637B5C
S31508009980012B0AD148B909EB45131A7B60F341024A
S315080099901A731A7F60F341021A770135082D4FEAC8
S315080099A0460604F11004DED1BDE8F8830000045031
S315080099B0C03D012000200450403E012070B50446F9
S315080099C001250B4E04B970BD94FAA4F0B0FA80F0E4
S315080099D005FA00F306EB001224EA03045368002B89
S315080099E0F0D0117B11B191689847EBE79847E9E702
S315080099F0403F012008B5192001F09AFE28B14FF022
S31508009A000072074BC3F880211A601A2001F090FEF5
S31508009A1028B14FF08062024BC3F880211A6008BD56
S31508009A2000E100E038B505460C467DF046FD00220B
S31508009A30044B03EB05135C601A73BDE838407DF0F0
S31508009A4042BD00BF403F0120F8B505460F46164601
S31508009A507DF033FD104B05F0FC02D3F824140023E7
S31508009A60EC1804F00304144321FA04FC1CF0010F5B
S31508009A7007D00133042BF3D1FF247DF024FD2046C3
S31508009A80F8BDFF2CF9D00122044B03EB0413C3E9FC
S31508009A9001761A73F1E700BF00C00350403F01206A
S31508009AA0074BD3F82404D3F8202403F500531040B9
S31508009AB000F0553020F05020C3F82004FFF77EBF91
S31508009AC000C00350074BD3F82404D3F8202403F529
S31508009AD00053104000F0AA3020F0A020C3F820045C
S31508009AE0FFF76CBF00C00350024B1968024B186899
S31508009AF070F00CB8641300206013002037B592008C
S31508009B0004460D460192C1F01FFF431C0BD060B9F5
S31508009B1029462046019AC1F0B9FC0028044808BF26
S31508009B20002003B030BD0348FBE70348F9E700BF50
S31508009B3010E000F021E000F024E000F010B5044643
S31508009B40C1F0FAFE431C10D088B902F0DBFB2346AD
S31508009B5020F003002044984201D1002010BD53F89C
S31508009B60042B0132F7D00348F8E70348F6E7034821
S31508009B70F4E700BF0EE000F021E000F024E000F07A
S31508009B8038B141B1013AB2F5006F044838BF002038
S31508009B907047034870470148704700BF037000F0DC
S31508009BA0027000F038B504460D467DF086FCA388A1
S31508009BB09BB223B92B607DF086FC064838BD14227B
S31508009BC063889BB202FB034408342C607DF07BFC5F
S31508009BD00020F3E70B7000F0F8B5044616460F466A
S31508009BE07DF06BFCA388E2889BB29A42054605D8AD
S31508009BF0002333607DF067FC1748F8BD14222388DC
S31508009C0007F1100C9BB202FB03433A46083317468A
S31508009C1003CF6745186059603A4603F10803F6D141
S31508009C20142238681860238828469BB202FB03432F
S31508009C30083333602388E2889BB20133B3FBF2F121
S31508009C4002FB11339BB22380A38801339BB2A38006
S31508009C507DF039FC0020D0E70A7000F090F8353026
S31508009C60022B0DD114223023417F90F8210013FBDB
S31508009C700123044A9B5823FA00F000F001007047BC
S31508009C800020704730C00350002313B51D4A52F810
S31508009C90044B94F8211081420ED00133042BF6D1DF
S31508009CA002B010BD0028FBD19DF80730002BF7D075
S31508009CB0A068FFF7BFFDF3E794F83530022BEFD124
S31508009CC02046FFF7CBFF637E2076022BE8D194F877
S31508009CD0323003F0FF02002BE2D1A0680DF1070134
S31508009CE08DF80720FFF7E6FD237E1BB194F8333085
S31508009CF0002BD7D00023A06884F83330FFF7BAFDCD
S31508009D00CEE700BF3048012030B51049104A0B781D
S31508009D102BB9C2E90033C2E9023301230B700C4C9C
S31508009D200023214651F8045B854208D00133042BF1
S31508009D30F8D1002154F8043B1BB942F82100002051
S31508009D4003E001310429F5D1024830BDFB6B02203E
S31508009D5030480120027000F010B50446FFF736FDC2
S31508009D60002104F10800FFF701FD014620B904F1BE
S31508009D700C00FFF7FBFC00B1004810BD0E7000F0A8
S31508009D8090F8363053B9042103790A4A03F2391395
S31508009D905B01D150022203685A617047022B07D132
S31508009DA00068816C11F0020118BF06217DF0CEBB58
S31508009DB0704700BF00C0035090F836306BB90122D7
S31508009DC003685A6102689369D907FCD504210379A7
S31508009DD0074AB9335B01D1507047022B07D1006897
S31508009DE0836C9B074CBF052109217DF0AFBB7047EB
S31508009DF000C0035010B590F8363004466BB90422FB
S31508009E0003685A61026893699907FCD523790C4A55
S31508009E10B9335B011021995010BD022BFCD10068A3
S31508009E20836CDB074CBF052106217DF08FFB237968
S31508009E3041F294425B0103F1A04303F57033E9E76D
S31508009E4000C003501FB50B460A6891F8361018462D
S31508009E5002290CBF926C9269920604D505B05DF88A
S31508009E6004EB7DF05DBA03937DF043FA0022039B71
S31508009E700146CDE9002203F13C00034A7FF053FC7A
S31508009E8005B05DF804FB00BF459E0008012370B5C8
S31508009E9080F8303090F8363004460E4686B0A3B9BE
S31508009EA00568243520467DF055FA0D4B3268039334
S31508009EB0002302937368616901930123E0680093A4
S31508009EC004942B467DF056F907E0022B02D105686B
S31508009ED03C35E7E7002380F8303006B070BD00BF98
S31508009EE021A2000801232DE9F04180F8313090F8CD
S31508009EF0363004460E4688B05BBB05683C357DF0B7
S31508009F00DCFA04F13C0807460DF11F01404608F04B
S31508009F104DFA40B99DF81F302BB1404608F01EFA9D
S31508009F2020467DF0FDF938467DF0CDFA20467DF0D5
S31508009F3011FA0D4B2A46039300230293736821698D
S31508009F4001930123A0680093049433687DF0F8F820
S31508009F5007E0022B02D105684435D0E7002380F8D4
S31508009F60313008B0BDE8F0816D9F0008F0B585B0C6
S31508009F70D06A03A91446FFF715FE064620467DF06B
S31508009F80B8F9002501462346CDE90055164A04F1DD
S31508009F903C007FF0C8FB154B9E421FD0039B1D61FA
S31508009FA09D607DF08AFA039A0646D76827B1D2E9FA
S31508009FB0002329462046B847E06A03A97DF0E3F95D
S31508009FC0E06A83889BB263B103A9FFF7EBFD2046DD
S31508009FD00399FFF787FF30467DF075FA012005B033
S31508009FE0F0BD84F83130F6E7459E00080B7000F0A6
S31508009FF0F8B507460D461646FFF7C2FD00286BD191
S3150800A000152001F0A3FB0446FA6A93889BB213B1A4
S3150800A01097F83230E3B197F83630F3B93B689C6964
S3150800A02004F002041CB93846FFF7E4FE00240123B5
S3150800A03087F8343097F83630CBB92E44B5423868AD
S3150800A04010D183699A06FCD51CB300242046F8BDB6
S3150800A050002CDAD0FFF778FCD6E7022BE3D13B6871
S3150800A0609C6CDDE715F8011B7DF023FBE6E7022B68
S3150800A070EAD12E44B542386806D142F22003826CF2
S3150800A08033EA0202FBD1DFE715F8011B7DF063FA1C
S3150800A090F0E797F8363053B910213B790F4A03F2A7
S3150800A0A039135B01D15008223B685A61CEE7022B6F
S3150800A0B0CCD13868836CDB074CBF092121467DF07B
S3150800A0C045FA42F2944210213B795B0103F1A04321
S3150800A0D003F570339950B9E70446B7E700C0035053
S3150800A0E010B5044680B190F832302BB9FFF7B6FDAB
S3150800A0F010B9A068FFF79EFB002094F832300133B0
S3150800A100DBB284F8323010BD0048FCE7027000F07C
S3150800A11010B50446A0B190F832309BB190F83230B1
S3150800A120012B05D1FFF79AFD10B9A068FFF7A2FB2E
S3150800A130002094F83230013BDBB284F8323010BD8F
S3150800A1400148FCE70148FAE7027000F0057000F0E4
S3150800A15037B590F835500446022D1DD1012290F8E6
S3150800A1602230457E817F9A403020164B25B900FB68
S3150800A170013303F5015305E0012D07D100FB013337
S3150800A18003F582531A60002003B030BD247E00FB1D
S3150800A1900133002CF4D1ECE7012DF4D1037E73B919
S3150800A1A011238DF80730FFF79BFF2A4620460DF14D
S3150800A1B00701FFF71DFF2046FFF7AAFFE3E7132372
S3150800A1C0EFE700BF00C00350F0B587B00546164656
S3150800A1D0FFF7D6FC0446F0B90493104BCDE90116F7
S3150800A1E06A46A86A01A903960593FFF7F5FC044693
S3150800A1F088B995F8303073B92846FFF7DDFD28464B
S3150800A2000099FFF743FE95F83530032B03D028460F
S3150800A2102C76FFF79DFF204607B0F0BD017000F0D1
S3150800A22073B5906A01A91446FFF7BCFC054620469B
S3150800A2307DF076F83A4B9D4232D094F83610019B61
S3150800A24000293CD12068826C12F400722BD0354A62
S3150800A25099601A614FF40072236803F500539A64F3
S3150800A2607DF02BF901990646CD6835B14A688B68A9
S3150800A2702046D31A0A680969A847A06A01A97DF089
S3150800A28082F8A06A8588ADB2002D3AD001A9FFF7F9
S3150800A29089FC20460199FFF7F9FD30467DF013F950
S3150800A2A0012002B070BD816CC80526D51E499A608A
S3150800A2B0196123684FF4807203F50053CFE702292A
S3150800A2C01BD12168CA6C12F400720AD0154A1A61A9
S3150800A2D000229A604FF40072236803F50053DA648B
S3150800A2E0BEE7C96CC90508D50F499A601961236884
S3150800A2F04FF4807203F50053F1E700221A619A6061
S3150800A300AEE7012320462376FFF722FF94F835307F
S3150800A31084F83050032BC0D02046FFF731FDBCE748
S3150800A3200B7000F00D7000F00C7000F02DE9F04194
S3150800A33004468CB0884F04AE0D460FCF0FC697E87B
S3150800A3400F0086E80F00102200216846C1F0D5F8F4
S3150800A350002C00F0FE8025B9804E30460CB0BDE8D2
S3150800A360F081602200212046C1F0C7F82B682046FC
S3150800A3702360022384F836302B7C2371FFF7C4FC54
S3150800A38006460028E9D12B7F754A84F835302B68B4
S3150800A390934240F0B88056236362724B23614FF4B0
S3150800A3A0702363610123ADF80630002384F8316019
S3150800A3B084F83060D5E90912A1620B80A16A3A20B7
S3150800A3C04B80A16A684E8B8084F83030E262138035
S3150800A3D0E26A01215380E26A938084F8313084F876
S3150800A3E0333002238DF81D30AB6806936B8AADF8BF
S3150800A3F02030AB8AADF81E30AB7D8DF81C30AB69CA
S3150800A4000993CDF82CD000F0E1FB0121606A00F039
S3150800A410DDFB2B79002B00F081800121362000F02E
S3150800A420D5FBD6F8203223F0070343F003031022A6
S3150800A430C6F820322B7C4D4F204607EB4313C3F852
S3150800A4409424A97B2B7C2A7B07EB431342EA01421F
S3150800A450C3F8AC242B7CE97B6A7B253342EA0142AC
S3150800A46007EB43135A602B7B0121E376AB7BE3773B
S3150800A4706B7B2377EB7B84F820306B7F6377AB7F2E
S3150800A48084F82130EB7FA37795F8203084F82230C2
S3150800A4907CF0BFFE064600287FF45FAF7DF00DF81E
S3150800A4A02A7F8046032A40D141F2944102202B7C20
S3150800A4B007EB431358502B7C95F82000E97F07EBF0
S3150800A4C0431341EA004103F5A5531960297CA87F87
S3150800A4D007EB411741F29C416B7F43EA00437B50EF
S3150800A4E08DF8002006238DF810302B79286804A9EA
S3150800A4F063B37DF039F82046FFF72EFC0646404642
S3150800A5007CF0E1FF29E71A4A93427FF425AF5723E7
S3150800A5106362184B23614FF4801342E7D6F8203262
S3150800A52023F0070343F0010381E7022ADAD194F8FE
S3150800A53021001149FFF776FAFFF75CFA4FF400732A
S3150800A54020462383A676FFF703FECBE77DF008F8BF
S3150800A550D1E70A4E01E700BF74BD0C08037000F08E
S3150800A5600000015B01000F000080005000C003508E
S3150800A57000000A5001001000899C0008027000F0D3
S3150800A580F0B587B004461646FFF7FAFA054658BBF3
S3150800A5900493194BCDE90116059394F836300396C2
S3150800A5A02BBB23689B6903F0020313B92046FFF708
S3150800A5B021FC6A46E06A01A9FFF70EFB054698B931
S3150800A5C094F8313083B97CF078FFE36A06469B88B5
S3150800A5D09BB233B120460099FFF784FC012384F827
S3150800A5E0343030467CF06FFF284607B0F0BD022BAA
S3150800A5F0DCD123689B6CD6E7017000F0044BD3F8D6
S3150800A6008420D206FBD4D3F88400C0F381107047A7
S3150800A610004000502E4B98424AD022D82D4B9842E3
S3150800A62040D014D82C4B984239D00AD82B4B984294
S3150800A63032D02B4B98422FD02A4B98422CD0002050
S3150800A6407047294B9842FAD1284B186F7047284B08
S3150800A65098422AD0274B9842F1D1244BD3F8800050
S3150800A6607047254B98422BD009D8244B984223D0C3
S3150800A670234B9842E3D11D4BD3F88C007047214BEE
S3150800A680984221D003F5740303F510539842D6D1A6
S3150800A690164BD3F898007047144B986D7047134BB8
S3150800A6A0586E7047114B586F7047104B986F70472C
S3150800A6B00E4BD3F8840070470C4BD3F888007047CC
S3150800A6C00A4BD3F890007047084BD3F894007047AC
S3150800A6D00048E8010024F400C0CF6A0080841E0008
S3150800A6E000093D0040420F00405DC6000080E00FB3
S3150800A6F0C0EA210180BA8C01007E560380D5430248
S3150800A700006CDC020090D00338B5104B0546D3F830
S3150800A71080300C4603F00303022B0BD0032B0DD01D
S3150800A720012B0FD1FEF75CFB0E2305B1286004B19F
S3150800A730236038BDFEF79EFB0723F6E7FEF744FBCA
S3150800A7400623F2E700231846EFE700BF0080005013
S3150800A75038B5184B0546D3F820010C4600F007001B
S3150800A760062805D8DFE800F0230B0F17131B1F0078
S3150800A7700023184605B1286004B1236038BDFEF7EA
S3150800A78023FB0523F6E7FEF75BFB0323F2E7FEF759
S3150800A79071FB0723EEE7FEF769FB0223EAE7FEF7FC
S3150800A7A013FB0623E6E7FEF74BFB0423E2E7012348
S3150800A7B0E0E700BF0080005038B5174B0546D3F8D0
S3150800A7C028310C4603F00703013B052B20D8DFE8A8
S3150800A7D003F003131B0F0B17FEF7F6FA052305B153
S3150800A7E0286004B1236038BDFEF7EEFA0623F6E7C3
S3150800A7F0FEF740FB0723F2E7FEF722FB0323EEE70B
S3150800A800FEF71EFB0423EAE7FEF730FB0223E6E722
S3150800A81000231846E3E700BF0080005073B50D46D5
S3150800A8200021114B0191D3F88041064604F0030438
S3150800A830022C13D0032C0CD0012C13D101A8FFF73E
S3150800A84087FF10240EB1019B336005B12C6002B05E
S3150800A85070BDFEF70FFB07240190F3E7FEF706FB32
S3150800A8600190EFE70C46EDE700800050002337B56E
S3150800A8700193164B0546D3F820320C4603F007031E
S3150800A880042B04D8DFE803F0200B11161B00002365
S3150800A8900DB1019A2A6004B1236003B030BD0021CE
S3150800A8A001A8FFF789FF1223F2E7FEF7E3FA072369
S3150800A8B00190EDE77CF0FAFA0A230190E8E7FEF743
S3150800A8C01BFB09230190E3E70123E1E70080005021
S3150800A8D038B5104B0546D3F840310C4603F0030350
S3150800A8E0022B0BD0032B0DD0012B0FD17CF0DEFAF7
S3150800A8F00A2305B1286004B1236038BDFEF7FCFAC7
S3150800A9000923F6E77CF0D5FA0C23F2E701230020A9
S3150800A910EFE700BF00800050002337B50193164BC0
S3150800A9200546D3F860320C4603F00703013B032BB8
S3150800A9301FD8DFE803F0020E1914002101A8FFF75B
S3150800A94007FF10230DB1019A2A6004B1236003B0F2
S3150800A95030BD002101A8FFF7BBFF1123F2E7FEF780
S3150800A96089FA07230190EDE7FEF780FA02230190A2
S3150800A970E8E70023E6E700BF00800050002337B56C
S3150800A9800193164B0546D3F894320C4603F0070399
S3150800A990013B032B1FD8DFE803F0020E1914002130
S3150800A9A001A8FFF7D5FE10230DB1019A2A6004B15C
S3150800A9B0236003B030BD002101A8FFF789FF1123EA
S3150800A9C0F2E7FEF757FA07230190EDE7FEF74EFA8E
S3150800A9D002230190E8E70023E6E700BF0080005065
S3150800A9E038B5144B0546D3F800020C4600F00700AC
S3150800A9F0042804D8DFE800F01B0A0E12160000230C
S3150800AA00184605B1286004B1236038BD7CF04EFABB
S3150800AA100A23F6E7FEF770FA0923F2E77CF049FA0B
S3150800AA200C23EEE7FEF7F6F90F23800AE9E7012380
S3150800AA30E7E700BF0080005038B5144B0546D3F849
S3150800AA4008020C4600F00700042804D8DFE800F0E6
S3150800AA501B0A0E1216000023184605B1286004B119
S3150800AA60236038BD7CF022FA0A23F6E7FEF744FA9B
S3150800AA700923F2E77CF01DFA0C23EEE7FEF7CAF984
S3150800AA800F23800AE9E70123E7E700BF00800050AB
S3150800AA9038B5104B0546D3F840320C4603F003038D
S3150800AAA0022B0BD0032B0DD0012B0FD17CF0FEF916
S3150800AAB00A2305B1286004B1236038BDFEF71CFAE5
S3150800AAC00923F6E77CF0F5F90C23F2E701230020C9
S3150800AAD0EFE700BF0080005038B5104B0546D3F8A5
S3150800AAE060310C4603F00303022B0BD0032B0DD069
S3150800AAF0012B0FD17CF0DAF90A2305B1286004B1DD
S3150800AB00236038BDFEF7F8F90923F6E77CF0D1F99A
S3150800AB100C23F2E701230020EFE700BF0080005076
S3150800AB20B0F5207F1FD009D8B0F5007F15D003D81F
S3150800AB3068B1B0F5C07F0AD000200CE0B0F5607FA0
S3150800AB40FAD10B4BD3F88000C0F3011003E0084B91
S3150800AB50186FC0F3033001307047054BD3F89000E7
S3150800AB60C0F30460F7E7024B186FC0F38020F2E7E2
S3150800AB700080005002464FF48030104B10B598669E
S3150800AB800020FFF7CDFF504341F671320C4BDC69CC
S3150800AB90DA635A6804F4803422F4401259B9094930
S3150800ABA088428CBF4FF480100020104358600CB1C7
S3150800ABB00022DA6310BD0449F2E700BF0090005096
S3150800ABC000000350005A6202002D3101430905D0E6
S3150800ABD0012B0DD0022B094B18BF002300F01F00D4
S3150800ABE041B103F58053012202FA00F0186070475C
S3150800ABF0034BF3E703F50053F5E700BF6880005001
S3150800AC00648000501FB5002180280446CDE9001154
S3150800AC1000F0A58035D85E2846D85E2844D8DFE8F7
S3150800AC2000F0A2434343434343434343434343431D
S3150800AC3043434343434343434343434343434343D6
S3150800AC404343A2AAA2AAB9B9B9B9B9AAC34DD97137
S3150800AC504DAAAAAA4343434343434343AAAAAA790C
S3150800AC60E3AA43434343434343434343434343B929
S3150800AC70A2A2A2DE4D4DE8885EBE434343434399F4
S3150800AC80A200B0F5B06F00F08F802DD8B0F5207F08
S3150800AC9071D00CD8B0F5C07F65D0B0F5007F65D00F
S3150800ACA0B0F5807F00F08580009804B010BDB0F53F
S3150800ACB0607F6AD00DD8B0F5407FF5D1FEF7AAF8C7
S3150800ACC002464FF42070FFF72BFFB2FBF0F0400866
S3150800ACD047E0B0F5806F5DD0B0F5A06FE4D10021F4
S3150800ACE06846FFF7C3FDDFE7B0F5106F77D016D8D3
S3150800ACF0B0F5E06F78D00AD8B0F5C06F6AD0B0F575
S3150800AD00D06FD1D100216846FFF76AFECCE7B0F5CF
S3150800AD10F06FC9D100216846FFF7DEFEC4E7B0F53B
S3150800AD20406F3CD013D8B0F5206F62D0B0F5286FCD
S3150800AD30BAD10021314B0391D3F8703203F00303E3
S3150800AD40012B02D103A8FFF7C3FD039B3BE0B0F537
S3150800AD50486FA9D100216846FFF710FEA4E7FEF761
S3150800AD603FF80090A0E7FEF755F8FAE7FEF738F83F
S3150800AD700246204604E0FEF74DF802464FF42070DE
S3150800AD80FFF7CEFEB2FBF0F0EBE701A8FFF7BCFC3D
S3150800AD90019AEEE700216846FFF7DAFC84E700210E
S3150800ADA06846FFF709FD7FE700216846FFF736FD8D
S3150800ADB07AE74FF0E02302911B695B0705D5FEF79A
S3150800ADC029F80290029B00936EE703A902A8FFF7F1
S3150800ADD07FFDF7E700216846FFF77AFD64E7002163
S3150800ADE06846FFF729FE5FE700216846FFF750FE31
S3150800ADF05AE700216846FFF78FFD55E700800050A7
S3150800AE0008B58020FFF7FEFE034B98429EBF4FF41D
S3150800AE108032024B1A6708BD005A620200A0005031
S3150800AE201FB50023B0F5807F019300F0C38064D876
S3150800AE305D2855D84C2807D82D2847D823282BD83D
S3150800AE40019805B05DF804FB4D381028F8D801A321
S3150800AE5053F820F0ABAF000841AE000841AE000839
S3150800AE6041AE00085DAF000841AE000841AE0008DB
S3150800AE7031B000087BAF000821AF000827B00008F2
S3150800AE8041AE000841AE000841AE000841AE0008D8
S3150800AE9041AE00083BB0000824380928D0D801A3E1
S3150800AEA053F820F0ABAF0008ABAF0008ABAF000813
S3150800AEB0ABAF0008ABAF000841AE0008A1AF000871
S3150800AEC041AE00083DAF0008E1AF00083D2800F09C
S3150800AED082803E28B4D1002001A9FFF7D9FDAFE74B
S3150800AEE08028ADD15A4B1B6F03F00703013B032B98
S3150800AEF0A6D8DFE803F05350878FB0F5F06F6AD015
S3150800AF0021D8B0F5B06F4BD00FD8B0F5607F00F000
S3150800AF10858095D3B0F5806F47D0B0F5A06F8FD1F7
S3150800AF20002001A9FFF7A2FC8AE7B0F5D06F57D039
S3150800AF30B0F5E06FCFD0B0F5C06F81D1002001A980
S3150800AF40FFF7C6FC7CE7B0F5206F71D00BD8B0F5DB
S3150800AF50086F4AD0B0F5106F7FF472AF002001A9D0
S3150800AF60FFF76AFD6CE7B0F5406F5CD0B0F5486F47
S3150800AF7063D0B0F5286F7FF463AF0021344B03919B
S3150800AF80D3F8703203F00303012B5BD0022B14BFF6
S3150800AF900B46152300E00523019351E70223FBE73F
S3150800AFA0002001A9FFF73AFC4AE7002001A9FFF7AC
S3150800AFB0CFFB45E702934FF0E0231B695B0705D5F6
S3150800AFC0FDF728FF0D230393039BE5E703A902A8D2
S3150800AFD0FFF77EFCF8E7002001A9FFF77DFD2FE7C4
S3150800AFE0002001A9FFF7FCFC2AE7194BD3F800312A
S3150800AFF003F00303022B07D0032B09D0012B0BD137
S3150800B000FDF71EFF0323C7E7FDF776FF0923C3E70E
S3150800B0107BF04AFF0823BFE70123BDE7184601A9CD
S3150800B020FFF772FB0CE7002001A9FFF7C5FB07E74E
S3150800B030002001A9FFF770FC02E7002001A9FFF72D
S3150800B0409DFCFDE603A8FFF743FC1123A4E700BF18
S3150800B0500080005008B5FFF7E3FE092811D00A382A
S3150800B060012811D84FF48002094B4FF6FF705A6633
S3150800B07003F5D8335B6A13F0010F18BF4FF4FA7063
S3150800B08008BD044B1888FBE74FF6FF70F8E700BFCA
S3150800B090009000504A19002038B504468020FFF772
S3150800B0A0BFFE032800F08A804FF48012544B4FF0FD
S3150800B0B0A0615A6645F60E03524AC2F88030524BD2
S3150800B0C099624FF4803103F580539962936DD903E1
S3150800B0D0FCD4916D11F08041FBD1D4E900031B0526
S3150800B0E043EA0063E07B0343207B43EA0043607B3B
S3150800B0F043EA0033A07B43EA801313619069D4E9DD
S3150800B10004531B0643EA856300F000400343A07E10
S3150800B1100343207E43EA0043607E43EA00239361AB
S3150800B120136AE269E57E002A0CBF0020082023F096
S3150800B1300F03134343EA8503324A03431362E36961
S3150800B140324D002B3BD194F82430916A94F82000B4
S3150800B150DB000D4043EA401394F821102B4343EAE1
S3150800B160011343F480339362294B916D33EA01014D
S3150800B170FBD14FF08071244881621369A56823F4D6
S3150800B180700343EA055313614FF00043836194F853
S3150800B19022300BB91F4B996294F823303BB94FF410
S3150800B1A080321C4B9A62174A936D5B00FCD494F864
S3150800B1B025301BB1134B184AC3F8802038BD022B23
S3150800B1C008D11161154891614FF408524FF47F4137
S3150800B1D07CF033F90B4994F822308A6A94F82000F7
S3150800B1E01B06154043EA401394F824202B4343EAF0
S3150800B1F0C20394F8232043EA02438B62D7E700BFD1
S3150800B200009000500040005A0050005AC7FFFEFE4A
S3150800B210030001000060005AF1A7FFFF3440005AFE
S3150800B22037B5194CA26AA36D13F4803F18BF4FF4C3
S3150800B2308031164B18BF99624FF080719962144B92
S3150800B240A56993F9003025F47F050344000280B20E
S3150800B25025F47F4583F30803284340EA0340A061A9
S3150800B2600C4801927CF0E9F8A36D019A13F4803F2B
S3150800B27007D04FF48031074803B0BDE830407CF072
S3150800B280DCB803B030BD00BF0040005A0050005A79
S3150800B290641900202840005A014B93F900007047B2
S3150800B2A0641900204FF480300E490F4B8A6A986261
S3150800B2B0886D00F003000328FAD14FF08070986279
S3150800B2C0896D01211965074B996D8907FCD4996D1C
S3150800B2D08807FCD5996D8907FCD5044904487CF094
S3150800B2E0ACB800BF0040005A0050005A00000101E7
S3150800B2F02840005A4FF400011B4A437810B551669E
S3150800B3004FF4D151022402F5B832516217494F2B36
S3150800B3104C604FF0010428BF4F2301F580514C6063
S3150800B3201169C903FCD4017843EA01235361D0E9C2
S3150800B33001131B0143EA0123417B0B43017B43EACB
S3150800B34041039360C37B817B1B0143EA4113417C24
S3150800B3500B43017C43EA41035360837C13B16FF4CA
S3150800B360D153536210BD00BF009000500010025028
S3150800B370014B1880704700BF4A190020014B1880FE
S3150800B380704700BF481900204FF4800208B5184BD3
S3150800B3905A660223174A5360936813F48033FBD125
S3150800B3A0012822D1FDF74CFD134B984215D003F521
S3150800B3B0122303F5F863984213D0104B00EB800272
S3150800B3C0400AB3FBF0F0520A0A4BDA62012218630C
S3150800B3D05A620022074B5A6008BD45F67A10084A99
S3150800B3E0F2E745F61A00074AEEE75362F1E700BFAF
S3150800B3F0009000500040025000F0490264666666FC
S3150800B400D8B80500BBCF0500B0F5207F10B50C46AF
S3150800B41057D008D8B0F5007F48D003D830B3B0F578
S3150800B420C07F23D010BDB0F5607FFBD129492A48DB
S3150800B430D1F8FC2012F080721EBFD1F8FC3023F040
S3150800B4408073C1F8FC30D0F88030611E23F03004D8
S3150800B45044EA0114C0F88040002AE3D01D4AD2F815
S3150800B460FC3043F08073C2F8FC30DBE77BF0F6FF74
S3150800B4707CF002F84FF48031184B174A1967136F9E
S3150800B480611E23F4704444EA01341467FDF7C2FCD4
S3150800B4900446FFF7B3F8C0F1020120467BF0E6FF49
S3150800B4A000F02EF8BDE81040FFF7AABC0A4A013999
S3150800B4B0D2F8903023F0F85444EA0164C2F8904078
S3150800B4C0B0E7054B013C196F21F4806141EA8424F9
S3150800B4D01C67A7E700ED00E00080005000900050D0
S3150800B4E008B50121022000F0A5F97BF0B7FF7BF033
